{
  "abi": [
    {
      "anonymous": false,
      "inputs": [
        {
          "indexed": true,
          "internalType": "address[]",
          "name": "addresses",
          "type": "address[]"
        },
        {
          "indexed": false,
          "internalType": "uint16[]",
          "name": "amounts",
          "type": "uint16[]"
        }
      ],
      "name": "AddToWhitelist",
      "type": "event"
    },
    {
      "anonymous": false,
      "inputs": [
        {
          "indexed": true,
          "internalType": "address",
          "name": "owner",
          "type": "address"
        },
        {
          "indexed": true,
          "internalType": "address",
          "name": "approved",
          "type": "address"
        },
        {
          "indexed": true,
          "internalType": "uint256",
          "name": "tokenId",
          "type": "uint256"
        }
      ],
      "name": "Approval",
      "type": "event"
    },
    {
      "anonymous": false,
      "inputs": [
        {
          "indexed": true,
          "internalType": "address",
          "name": "owner",
          "type": "address"
        },
        {
          "indexed": true,
          "internalType": "address",
          "name": "operator",
          "type": "address"
        },
        {
          "indexed": false,
          "internalType": "bool",
          "name": "approved",
          "type": "bool"
        }
      ],
      "name": "ApprovalForAll",
      "type": "event"
    },
    {
      "anonymous": false,
      "inputs": [
        {
          "indexed": false,
          "internalType": "uint256",
          "name": "tokenId",
          "type": "uint256"
        },
        {
          "indexed": false,
          "internalType": "uint256",
          "name": "zooIndex",
          "type": "uint256"
        }
      ],
      "name": "Assign",
      "type": "event"
    },
    {
      "anonymous": false,
      "inputs": [
        {
          "indexed": false,
          "internalType": "address",
          "name": "dZooStaking",
          "type": "address"
        }
      ],
      "name": "DZooStakingChanged",
      "type": "event"
    },
    {
      "anonymous": false,
      "inputs": [
        {
          "indexed": false,
          "internalType": "address",
          "name": "dZooToken",
          "type": "address"
        }
      ],
      "name": "DZooTokenChanged",
      "type": "event"
    },
    {
      "anonymous": false,
      "inputs": [
        {
          "indexed": false,
          "internalType": "uint256",
          "name": "tokenId",
          "type": "uint256"
        }
      ],
      "name": "Evolve",
      "type": "event"
    },
    {
      "anonymous": false,
      "inputs": [
        {
          "indexed": false,
          "internalType": "uint8",
          "name": "version",
          "type": "uint8"
        }
      ],
      "name": "Initialized",
      "type": "event"
    },
    {
      "anonymous": false,
      "inputs": [
        {
          "indexed": true,
          "internalType": "address",
          "name": "previousOwner",
          "type": "address"
        },
        {
          "indexed": true,
          "internalType": "address",
          "name": "newOwner",
          "type": "address"
        }
      ],
      "name": "OwnershipTransferred",
      "type": "event"
    },
    {
      "anonymous": false,
      "inputs": [
        {
          "indexed": true,
          "internalType": "address[]",
          "name": "addresses",
          "type": "address[]"
        }
      ],
      "name": "RemoveFromWhitelist",
      "type": "event"
    },
    {
      "anonymous": false,
      "inputs": [
        {
          "indexed": false,
          "internalType": "address",
          "name": "who",
          "type": "address"
        },
        {
          "indexed": false,
          "internalType": "uint256",
          "name": "tokenIdA",
          "type": "uint256"
        },
        {
          "indexed": false,
          "internalType": "uint256",
          "name": "tokenIdB",
          "type": "uint256"
        },
        {
          "indexed": false,
          "internalType": "uint256",
          "name": "requestId",
          "type": "uint256"
        }
      ],
      "name": "RequestEvolve",
      "type": "event"
    },
    {
      "anonymous": false,
      "inputs": [
        {
          "indexed": false,
          "internalType": "address",
          "name": "who",
          "type": "address"
        },
        {
          "indexed": false,
          "internalType": "uint256",
          "name": "tokenId",
          "type": "uint256"
        },
        {
          "indexed": false,
          "internalType": "uint256",
          "name": "requestId",
          "type": "uint256"
        },
        {
          "indexed": false,
          "internalType": "uint256",
          "name": "amount",
          "type": "uint256"
        },
        {
          "indexed": false,
          "internalType": "address",
          "name": "referral",
          "type": "address"
        }
      ],
      "name": "RequestHatch",
      "type": "event"
    },
    {
      "anonymous": false,
      "inputs": [
        {
          "indexed": true,
          "internalType": "address",
          "name": "from",
          "type": "address"
        },
        {
          "indexed": true,
          "internalType": "address",
          "name": "to",
          "type": "address"
        },
        {
          "indexed": true,
          "internalType": "uint256",
          "name": "tokenId",
          "type": "uint256"
        }
      ],
      "name": "Transfer",
      "type": "event"
    },
    {
      "inputs": [],
      "name": "IPFS_HASH",
      "outputs": [
        {
          "internalType": "string",
          "name": "",
          "type": "string"
        }
      ],
      "stateMutability": "view",
      "type": "function"
    },
    {
      "inputs": [],
      "name": "MAX_SUPPLY",
      "outputs": [
        {
          "internalType": "uint256",
          "name": "",
          "type": "uint256"
        }
      ],
      "stateMutability": "view",
      "type": "function"
    },
    {
      "inputs": [
        {
          "internalType": "address[]",
          "name": "_addresses",
          "type": "address[]"
        },
        {
          "internalType": "uint16[]",
          "name": "_amounts",
          "type": "uint16[]"
        }
      ],
      "name": "addToWhitelist",
      "outputs": [],
      "stateMutability": "nonpayable",
      "type": "function"
    },
    {
      "inputs": [
        {
          "internalType": "uint256",
          "name": "",
          "type": "uint256"
        }
      ],
      "name": "animals",
      "outputs": [
        {
          "internalType": "uint32",
          "name": "numberInGame",
          "type": "uint32"
        },
        {
          "internalType": "uint32",
          "name": "alive",
          "type": "uint32"
        },
        {
          "internalType": "uint32",
          "name": "killed",
          "type": "uint32"
        },
        {
          "internalType": "uint32",
          "name": "rank",
          "type": "uint32"
        },
        {
          "internalType": "uint32",
          "name": "evolveTime",
          "type": "uint32"
        },
        {
          "internalType": "uint32",
          "name": "multiplier",
          "type": "uint32"
        },
        {
          "internalType": "enum BaseAnimals.Rarity",
          "name": "rarity",
          "type": "uint8"
        },
        {
          "internalType": "string",
          "name": "name",
          "type": "string"
        }
      ],
      "stateMutability": "view",
      "type": "function"
    },
    {
      "inputs": [
        {
          "internalType": "address",
          "name": "to",
          "type": "address"
        },
        {
          "internalType": "uint256",
          "name": "tokenId",
          "type": "uint256"
        }
      ],
      "name": "approve",
      "outputs": [],
      "stateMutability": "nonpayable",
      "type": "function"
    },
    {
      "inputs": [
        {
          "internalType": "address",
          "name": "owner",
          "type": "address"
        }
      ],
      "name": "balanceOf",
      "outputs": [
        {
          "internalType": "uint256",
          "name": "",
          "type": "uint256"
        }
      ],
      "stateMutability": "view",
      "type": "function"
    },
    {
      "inputs": [],
      "name": "baseAnimals",
      "outputs": [
        {
          "internalType": "contract BaseAnimals",
          "name": "",
          "type": "address"
        }
      ],
      "stateMutability": "view",
      "type": "function"
    },
    {
      "inputs": [
        {
          "internalType": "uint256",
          "name": "stakedTokensA",
          "type": "uint256"
        },
        {
          "internalType": "uint256",
          "name": "stakedTokensB",
          "type": "uint256"
        },
        {
          "internalType": "uint256",
          "name": "multiplierA",
          "type": "uint256"
        },
        {
          "internalType": "uint256",
          "name": "multiplierB",
          "type": "uint256"
        },
        {
          "internalType": "bool",
          "name": "sameRank",
          "type": "bool"
        }
      ],
      "name": "calculateEvolveStakedTokens",
      "outputs": [
        {
          "internalType": "uint256",
          "name": "",
          "type": "uint256"
        }
      ],
      "stateMutability": "pure",
      "type": "function"
    },
    {
      "inputs": [],
      "name": "dZooStaking",
      "outputs": [
        {
          "internalType": "address",
          "name": "",
          "type": "address"
        }
      ],
      "stateMutability": "view",
      "type": "function"
    },
    {
      "inputs": [],
      "name": "dZooToken",
      "outputs": [
        {
          "internalType": "contract wDZOO",
          "name": "",
          "type": "address"
        }
      ],
      "stateMutability": "view",
      "type": "function"
    },
    {
      "inputs": [
        {
          "internalType": "uint256",
          "name": "tokenId",
          "type": "uint256"
        }
      ],
      "name": "earned",
      "outputs": [
        {
          "internalType": "uint256",
          "name": "earnedTokens",
          "type": "uint256"
        }
      ],
      "stateMutability": "view",
      "type": "function"
    },
    {
      "inputs": [
        {
          "internalType": "uint256",
          "name": "tokenIdA",
          "type": "uint256"
        },
        {
          "internalType": "uint256",
          "name": "tokenIdB",
          "type": "uint256"
        }
      ],
      "name": "evolve",
      "outputs": [],
      "stateMutability": "payable",
      "type": "function"
    },
    {
      "inputs": [
        {
          "internalType": "uint24[]",
          "name": "orderAs",
          "type": "uint24[]"
        },
        {
          "internalType": "uint24[]",
          "name": "orderBs",
          "type": "uint24[]"
        }
      ],
      "name": "fillAssignOrders",
      "outputs": [],
      "stateMutability": "nonpayable",
      "type": "function"
    },
    {
      "inputs": [
        {
          "internalType": "uint256",
          "name": "tokenId",
          "type": "uint256"
        }
      ],
      "name": "getApproved",
      "outputs": [
        {
          "internalType": "address",
          "name": "",
          "type": "address"
        }
      ],
      "stateMutability": "view",
      "type": "function"
    },
    {
      "inputs": [
        {
          "internalType": "address",
          "name": "_address",
          "type": "address"
        }
      ],
      "name": "grantWhitelistRole",
      "outputs": [],
      "stateMutability": "nonpayable",
      "type": "function"
    },
    {
      "inputs": [
        {
          "internalType": "uint256",
          "name": "tokenId",
          "type": "uint256"
        },
        {
          "internalType": "uint256",
          "name": "amount",
          "type": "uint256"
        },
        {
          "internalType": "address",
          "name": "referral",
          "type": "address"
        }
      ],
      "name": "hatch",
      "outputs": [],
      "stateMutability": "payable",
      "type": "function"
    },
    {
      "inputs": [
        {
          "internalType": "uint256",
          "name": "increment",
          "type": "uint256"
        }
      ],
      "name": "increaseZooRemainingToAssign",
      "outputs": [],
      "stateMutability": "nonpayable",
      "type": "function"
    },
    {
      "inputs": [
        {
          "internalType": "string",
          "name": "_gameName",
          "type": "string"
        },
        {
          "internalType": "string",
          "name": "_gameSymbol",
          "type": "string"
        },
        {
          "internalType": "address",
          "name": "_dZooToken",
          "type": "address"
        },
        {
          "internalType": "bytes32",
          "name": "_keyHash",
          "type": "bytes32"
        },
        {
          "internalType": "uint256",
          "name": "_totalSupply",
          "type": "uint256"
        },
        {
          "internalType": "uint256",
          "name": "_whitelistMint",
          "type": "uint256"
        },
        {
          "internalType": "address",
          "name": "_vrfCoordinator",
          "type": "address"
        },
        {
          "internalType": "uint64",
          "name": "_subId",
          "type": "uint64"
        },
        {
          "internalType": "string",
          "name": "_ipfsHash",
          "type": "string"
        },
        {
          "internalType": "address",
          "name": "_govOperator",
          "type": "address"
        },
        {
          "internalType": "address",
          "name": "_baseAnimals",
          "type": "address"
        }
      ],
      "name": "initialize",
      "outputs": [],
      "stateMutability": "nonpayable",
      "type": "function"
    },
    {
      "inputs": [
        {
          "internalType": "address",
          "name": "owner",
          "type": "address"
        },
        {
          "internalType": "address",
          "name": "operator",
          "type": "address"
        }
      ],
      "name": "isApprovedForAll",
      "outputs": [
        {
          "internalType": "bool",
          "name": "",
          "type": "bool"
        }
      ],
      "stateMutability": "view",
      "type": "function"
    },
    {
      "inputs": [
        {
          "internalType": "uint256",
          "name": "tokenId",
          "type": "uint256"
        }
      ],
      "name": "kill",
      "outputs": [],
      "stateMutability": "nonpayable",
      "type": "function"
    },
    {
      "inputs": [
        {
          "internalType": "uint256",
          "name": "",
          "type": "uint256"
        }
      ],
      "name": "metadata",
      "outputs": [
        {
          "internalType": "uint32",
          "name": "variant",
          "type": "uint32"
        },
        {
          "internalType": "uint32",
          "name": "level",
          "type": "uint32"
        },
        {
          "internalType": "uint32",
          "name": "rank",
          "type": "uint32"
        },
        {
          "internalType": "uint32",
          "name": "evolveTime",
          "type": "uint32"
        },
        {
          "internalType": "uint32",
          "name": "multiplier",
          "type": "uint32"
        },
        {
          "internalType": "enum BaseAnimals.Rarity",
          "name": "rarity",
          "type": "uint8"
        },
        {
          "internalType": "uint56",
          "name": "hatchTimestamp",
          "type": "uint56"
        },
        {
          "internalType": "uint256",
          "name": "stakedTokens",
          "type": "uint256"
        },
        {
          "internalType": "bool",
          "name": "shininess",
          "type": "bool"
        }
      ],
      "stateMutability": "view",
      "type": "function"
    },
    {
      "inputs": [
        {
          "internalType": "address",
          "name": "to",
          "type": "address"
        },
        {
          "internalType": "uint256",
          "name": "amount",
          "type": "uint256"
        }
      ],
      "name": "mint",
      "outputs": [],
      "stateMutability": "nonpayable",
      "type": "function"
    },
    {
      "inputs": [
        {
          "internalType": "uint16",
          "name": "amount",
          "type": "uint16"
        }
      ],
      "name": "mintWhitelist",
      "outputs": [],
      "stateMutability": "nonpayable",
      "type": "function"
    },
    {
      "inputs": [],
      "name": "name",
      "outputs": [
        {
          "internalType": "string",
          "name": "",
          "type": "string"
        }
      ],
      "stateMutability": "view",
      "type": "function"
    },
    {
      "inputs": [],
      "name": "owner",
      "outputs": [
        {
          "internalType": "address",
          "name": "",
          "type": "address"
        }
      ],
      "stateMutability": "view",
      "type": "function"
    },
    {
      "inputs": [
        {
          "internalType": "uint256",
          "name": "tokenId",
          "type": "uint256"
        }
      ],
      "name": "ownerOf",
      "outputs": [
        {
          "internalType": "address",
          "name": "",
          "type": "address"
        }
      ],
      "stateMutability": "view",
      "type": "function"
    },
    {
      "inputs": [
        {
          "internalType": "uint256",
          "name": "requestId",
          "type": "uint256"
        },
        {
          "internalType": "uint256[]",
          "name": "randomWords",
          "type": "uint256[]"
        }
      ],
      "name": "rawFulfillRandomWords",
      "outputs": [],
      "stateMutability": "nonpayable",
      "type": "function"
    },
    {
      "inputs": [
        {
          "internalType": "address[]",
          "name": "_addresses",
          "type": "address[]"
        }
      ],
      "name": "removeFromWhitelist",
      "outputs": [],
      "stateMutability": "nonpayable",
      "type": "function"
    },
    {
      "inputs": [],
      "name": "renounceOwnership",
      "outputs": [],
      "stateMutability": "nonpayable",
      "type": "function"
    },
    {
      "inputs": [
        {
          "internalType": "address",
          "name": "_address",
          "type": "address"
        }
      ],
      "name": "revokeWhitelistRole",
      "outputs": [],
      "stateMutability": "nonpayable",
      "type": "function"
    },
    {
      "inputs": [
        {
          "internalType": "address",
          "name": "from",
          "type": "address"
        },
        {
          "internalType": "address",
          "name": "to",
          "type": "address"
        },
        {
          "internalType": "uint256",
          "name": "tokenId",
          "type": "uint256"
        }
      ],
      "name": "safeTransferFrom",
      "outputs": [],
      "stateMutability": "nonpayable",
      "type": "function"
    },
    {
      "inputs": [
        {
          "internalType": "address",
          "name": "from",
          "type": "address"
        },
        {
          "internalType": "address",
          "name": "to",
          "type": "address"
        },
        {
          "internalType": "uint256",
          "name": "tokenId",
          "type": "uint256"
        },
        {
          "internalType": "bytes",
          "name": "data",
          "type": "bytes"
        }
      ],
      "name": "safeTransferFrom",
      "outputs": [],
      "stateMutability": "nonpayable",
      "type": "function"
    },
    {
      "inputs": [
        {
          "internalType": "address",
          "name": "operator",
          "type": "address"
        },
        {
          "internalType": "bool",
          "name": "approved",
          "type": "bool"
        }
      ],
      "name": "setApprovalForAll",
      "outputs": [],
      "stateMutability": "nonpayable",
      "type": "function"
    },
    {
      "inputs": [
        {
          "internalType": "string",
          "name": "_IPFS_HASH",
          "type": "string"
        }
      ],
      "name": "setIpfsHash",
      "outputs": [],
      "stateMutability": "nonpayable",
      "type": "function"
    },
    {
      "inputs": [
        {
          "components": [
            {
              "internalType": "uint32",
              "name": "numberInGame",
              "type": "uint32"
            },
            {
              "internalType": "uint32",
              "name": "alive",
              "type": "uint32"
            },
            {
              "internalType": "uint32",
              "name": "killed",
              "type": "uint32"
            },
            {
              "internalType": "uint32",
              "name": "rank",
              "type": "uint32"
            },
            {
              "internalType": "uint32",
              "name": "evolveTime",
              "type": "uint32"
            },
            {
              "internalType": "uint32",
              "name": "multiplier",
              "type": "uint32"
            },
            {
              "internalType": "enum BaseAnimals.Rarity",
              "name": "rarity",
              "type": "uint8"
            },
            {
              "internalType": "string",
              "name": "name",
              "type": "string"
            }
          ],
          "internalType": "struct BaseAnimals.Animals[]",
          "name": "newAnimals",
          "type": "tuple[]"
        }
      ],
      "name": "setNewAnimals",
      "outputs": [],
      "stateMutability": "nonpayable",
      "type": "function"
    },
    {
      "inputs": [
        {
          "internalType": "uint64",
          "name": "_subId",
          "type": "uint64"
        },
        {
          "internalType": "bytes32",
          "name": "_keyHash",
          "type": "bytes32"
        },
        {
          "internalType": "uint16",
          "name": "_requestConfirmations",
          "type": "uint16"
        },
        {
          "internalType": "uint32",
          "name": "_callbackGasLimit",
          "type": "uint32"
        },
        {
          "internalType": "uint32",
          "name": "_numWords",
          "type": "uint32"
        }
      ],
      "name": "setVRFParams",
      "outputs": [],
      "stateMutability": "nonpayable",
      "type": "function"
    },
    {
      "inputs": [
        {
          "internalType": "address",
          "name": "dZooStaking_",
          "type": "address"
        }
      ],
      "name": "setZooStaking",
      "outputs": [],
      "stateMutability": "nonpayable",
      "type": "function"
    },
    {
      "inputs": [
        {
          "internalType": "address",
          "name": "_dZooToken",
          "type": "address"
        }
      ],
      "name": "setZooToken",
      "outputs": [],
      "stateMutability": "nonpayable",
      "type": "function"
    },
    {
      "inputs": [
        {
          "internalType": "bytes4",
          "name": "interfaceId",
          "type": "bytes4"
        }
      ],
      "name": "supportsInterface",
      "outputs": [
        {
          "internalType": "bool",
          "name": "",
          "type": "bool"
        }
      ],
      "stateMutability": "view",
      "type": "function"
    },
    {
      "inputs": [],
      "name": "symbol",
      "outputs": [
        {
          "internalType": "string",
          "name": "",
          "type": "string"
        }
      ],
      "stateMutability": "view",
      "type": "function"
    },
    {
      "inputs": [
        {
          "internalType": "uint256",
          "name": "index",
          "type": "uint256"
        }
      ],
      "name": "tokenByIndex",
      "outputs": [
        {
          "internalType": "uint256",
          "name": "",
          "type": "uint256"
        }
      ],
      "stateMutability": "view",
      "type": "function"
    },
    {
      "inputs": [
        {
          "internalType": "address",
          "name": "owner",
          "type": "address"
        },
        {
          "internalType": "uint256",
          "name": "index",
          "type": "uint256"
        }
      ],
      "name": "tokenOfOwnerByIndex",
      "outputs": [
        {
          "internalType": "uint256",
          "name": "",
          "type": "uint256"
        }
      ],
      "stateMutability": "view",
      "type": "function"
    },
    {
      "inputs": [
        {
          "internalType": "uint256",
          "name": "tokenId",
          "type": "uint256"
        }
      ],
      "name": "tokenURI",
      "outputs": [
        {
          "internalType": "string",
          "name": "",
          "type": "string"
        }
      ],
      "stateMutability": "view",
      "type": "function"
    },
    {
      "inputs": [],
      "name": "totalSupply",
      "outputs": [
        {
          "internalType": "uint256",
          "name": "",
          "type": "uint256"
        }
      ],
      "stateMutability": "view",
      "type": "function"
    },
    {
      "inputs": [
        {
          "internalType": "address",
          "name": "from",
          "type": "address"
        },
        {
          "internalType": "address",
          "name": "to",
          "type": "address"
        },
        {
          "internalType": "uint256",
          "name": "tokenId",
          "type": "uint256"
        }
      ],
      "name": "transferFrom",
      "outputs": [],
      "stateMutability": "nonpayable",
      "type": "function"
    },
    {
      "inputs": [
        {
          "internalType": "address",
          "name": "newOwner",
          "type": "address"
        }
      ],
      "name": "transferOwnership",
      "outputs": [],
      "stateMutability": "nonpayable",
      "type": "function"
    },
    {
      "inputs": [
        {
          "components": [
            {
              "internalType": "uint32",
              "name": "id",
              "type": "uint32"
            },
            {
              "internalType": "uint32",
              "name": "numberInGame",
              "type": "uint32"
            },
            {
              "internalType": "uint32",
              "name": "evolveTime",
              "type": "uint32"
            },
            {
              "internalType": "uint32",
              "name": "multiplier",
              "type": "uint32"
            }
          ],
          "internalType": "struct DZooNFT.AnimalsUpdate[]",
          "name": "animalsUpdate",
          "type": "tuple[]"
        }
      ],
      "name": "updateAnimals",
      "outputs": [],
      "stateMutability": "nonpayable",
      "type": "function"
    },
    {
      "inputs": [
        {
          "components": [
            {
              "internalType": "uint32",
              "name": "id",
              "type": "uint32"
            },
            {
              "internalType": "uint32",
              "name": "evolveTime",
              "type": "uint32"
            },
            {
              "internalType": "uint32",
              "name": "multiplier",
              "type": "uint32"
            },
            {
              "internalType": "uint256",
              "name": "stakedTokens",
              "type": "uint256"
            }
          ],
          "internalType": "struct DZooNFT.MetadataUpdate[]",
          "name": "metadataUpdate",
          "type": "tuple[]"
        }
      ],
      "name": "updateMetadata",
      "outputs": [],
      "stateMutability": "nonpayable",
      "type": "function"
    },
    {
      "inputs": [
        {
          "internalType": "address",
          "name": "",
          "type": "address"
        }
      ],
      "name": "whitelist",
      "outputs": [
        {
          "internalType": "uint16",
          "name": "",
          "type": "uint16"
        }
      ],
      "stateMutability": "view",
      "type": "function"
    },
    {
      "inputs": [],
      "name": "whitelistMintRemaining",
      "outputs": [
        {
          "internalType": "uint256",
          "name": "",
          "type": "uint256"
        }
      ],
      "stateMutability": "view",
      "type": "function"
    },
    {
      "inputs": [],
      "name": "zooRemainingToAssign",
      "outputs": [
        {
          "internalType": "uint256",
          "name": "",
          "type": "uint256"
        }
      ],
      "stateMutability": "view",
      "type": "function"
    }
  ],
  "bytecode": {
    "object": "0x608060405234801561001057600080fd5b50615e8880620000216000396000f3fe6080604052600436106102445760003560e01c806301ffc9a71461024957806304def5881461027e57806306fdde03146102a3578063081812fc146102c5578063095ea7b3146102fd5780630df6dfd11461031f5780630fc68ae51461033f57806318160ddd1461035f5780631fe543e31461037457806323b872dd146103945780632f745c59146103b457806332cb6b0c146103d45780633d5956ca146103eb578063400718f01461040c57806340c10f191461042c57806342842e0e1461044c578063464d31db1461046c578063497403b21461048c5780634d6ed8c4146104ac5780634e3b62ec146104cc5780634f6ccce7146104ec57806350ccda0c1461050c578063548db1741461051f5780635718ec2a1461053f5780635c7ce9381461055f5780636352211e1461057f57806370a082311461059f578063715018a6146105bf57806389fe2a7e146105d45780638da5cb5b146105e957806395d89b41146105fe5780639710d5ca14610613578063998dd3ca146106335780639b19251a14610667578063a22cb465146106ac578063af944d1a146106cc578063b1750afe146106e3578063b88d4fde14610703578063bcdcac7314610723578063c87b56dd14610743578063cd88211d14610763578063d29a002514610783578063e3684e39146107a3578063e4608df314610840578063e646268214610853578063e8bc2cbd14610873578063e985e9c514610894578063f1952b21146108b4578063f2fde38b146108d4578063f4ad5ab8146108f4578063fe130c2d14610914575b600080fd5b34801561025557600080fd5b50610269610264366004614688565b610934565b60405190151581526020015b60405180910390f35b34801561028a57600080fd5b506102956101975481565b604051908152602001610275565b3480156102af57600080fd5b506102b861095f565b6040516102759190614704565b3480156102d157600080fd5b506102e56102e0366004614717565b6109f1565b6040516001600160a01b039091168152602001610275565b34801561030957600080fd5b5061031d610318366004614755565b610a18565b005b34801561032b57600080fd5b5061031d61033a3660046147cc565b610b32565b34801561034b57600080fd5b5061031d61035a36600461480d565b610c90565b34801561036b57600080fd5b50609954610295565b34801561038057600080fd5b5061031d61038f3660046148bc565b610ce0565b3480156103a057600080fd5b5061031d6103af36600461495d565b610d45565b3480156103c057600080fd5b506102956103cf366004614755565b610d76565b3480156103e057600080fd5b506102956101985481565b3480156103f757600080fd5b5061019a546102e5906001600160a01b031681565b34801561041857600080fd5b5061031d610427366004614717565b610e0c565b34801561043857600080fd5b5061031d610447366004614755565b610e2f565b34801561045857600080fd5b5061031d61046736600461495d565b610ef8565b34801561047857600080fd5b5061031d6104873660046149b0565b610f13565b34801561049857600080fd5b5061031d6104a736600461480d565b611087565b3480156104b857600080fd5b506102956104c7366004614717565b6110b2565b3480156104d857600080fd5b5061031d6104e73660046149cb565b6112a1565b3480156104f857600080fd5b50610295610507366004614717565b6112b6565b61031d61051a366004614a3c565b611349565b34801561052b57600080fd5b5061031d61053a366004614acd565b611992565b34801561054b57600080fd5b5061031d61055a366004614b45565b611aec565b34801561056b57600080fd5b5061031d61057a366004614b7a565b611b91565b34801561058b57600080fd5b506102e561059a366004614717565b611c1e565b3480156105ab57600080fd5b506102956105ba36600461480d565b611c52565b3480156105cb57600080fd5b5061031d611cd8565b3480156105e057600080fd5b506102b8611cec565b3480156105f557600080fd5b506102e5611d7b565b34801561060a57600080fd5b506102b8611d8b565b34801561061f57600080fd5b5060fd546102e5906001600160a01b031681565b34801561063f57600080fd5b5061065361064e366004614717565b611d9a565b604051610275989796959493929190614c1d565b34801561067357600080fd5b5061069961068236600461480d565b6101616020526000908152604090205461ffff1681565b60405161ffff9091168152602001610275565b3480156106b857600080fd5b5061031d6106c7366004614c8f565b611e84565b3480156106d857600080fd5b5061029561019c5481565b3480156106ef57600080fd5b5061031d6106fe366004614d5f565b611e8f565b34801561070f57600080fd5b5061031d61071e366004614e5c565b611faa565b34801561072f57600080fd5b5061031d61073e3660046147cc565b611fe2565b34801561074f57600080fd5b506102b861075e366004614717565b612127565b34801561076f57600080fd5b5061031d61077e36600461480d565b6123c9565b34801561078f57600080fd5b5061031d61079e366004614717565b61241c565b3480156107af57600080fd5b5061082b6107be366004614717565b60fc6020526000908152604090208054600182015460029092015463ffffffff80831693600160201b8404821693600160401b8104831693600160601b8204841693600160801b8304169260ff600160a01b840481169366ffffffffffffff600160a81b90910416921689565b60405161027599989796959493929190614edb565b61031d61084e366004614f42565b6127ad565b34801561085f57600080fd5b5061031d61086e366004614f7b565b612b37565b34801561087f57600080fd5b5061019b546102e5906001600160a01b031681565b3480156108a057600080fd5b506102696108af36600461502d565b612d2d565b3480156108c057600080fd5b506102956108cf36600461505b565b612d5b565b3480156108e057600080fd5b5061031d6108ef36600461480d565b612e12565b34801561090057600080fd5b5061031d61090f36600461480d565b612e88565b34801561092057600080fd5b5061031d61092f3660046150ba565b612eb3565b60006001600160e01b0319821663780e9d6360e01b1480610959575061095982612ebb565b92915050565b60606065805461096e90615110565b80601f016020809104026020016040519081016040528092919081815260200182805461099a90615110565b80156109e75780601f106109bc576101008083540402835291602001916109e7565b820191906000526020600020905b8154815290600101906020018083116109ca57829003601f168201915b5050505050905090565b60006109fc82612f0b565b506000908152606960205260409020546001600160a01b031690565b6000610a2382611c1e565b9050806001600160a01b0316836001600160a01b031603610a955760405162461bcd60e51b815260206004820152602160248201527f4552433732313a20617070726f76616c20746f2063757272656e74206f776e656044820152603960f91b60648201526084015b60405180910390fd5b336001600160a01b0382161480610ab15750610ab18133612d2d565b610b235760405162461bcd60e51b815260206004820152603d60248201527f4552433732313a20617070726f76652063616c6c6572206973206e6f7420746f60448201527f6b656e206f776e6572206f7220617070726f76656420666f7220616c6c0000006064820152608401610a8c565b610b2d8383612f30565b505050565b610b3a612f9e565b60005b81811015610b2d576000838383818110610b5957610b5961514a565b610b6f9260206080909202019081019150615160565b63ffffffff169050838383818110610b8957610b8961514a565b9050608002016020016020810190610ba19190615160565b600082815260fb60205260409020805463ffffffff191663ffffffff92909216919091179055838383818110610bd957610bd961514a565b9050608002016040016020810190610bf19190615160565b600082815260fb60205260409020805463ffffffff92909216600160801b0263ffffffff60801b19909216919091179055838383818110610c3457610c3461514a565b9050608002016060016020810190610c4c9190615160565b600091825260fb6020526040909120805463ffffffff92909216600160a01b0263ffffffff60a01b1990921691909117905580610c8881615193565b915050610b3d565b610c98612f9e565b6001600160a01b038116610cbe5760405162461bcd60e51b8152600401610a8c906151ac565b6001600160a01b0316600090815261016260205260409020805460ff19169055565b610194546001600160a01b03163314610d375760405162461bcd60e51b815260206004820152601960248201527813db9b1e50dbdbdc991a5b985d1bdc90d85b919d5b199a5b1b603a1b6044820152606401610a8c565b610d418282612ffd565b5050565b610d4f3382613a8d565b610d6b5760405162461bcd60e51b8152600401610a8c906151c8565b610b2d838383613aeb565b6000610d8183611c52565b8210610de35760405162461bcd60e51b815260206004820152602b60248201527f455243373231456e756d657261626c653a206f776e657220696e646578206f7560448201526a74206f6620626f756e647360a81b6064820152608401610a8c565b506001600160a01b03919091166000908152609760209081526040808320938352929052205490565b610e14612f9e565b806101976000828254610e279190615215565b909155505050565b6001600160a01b038216610e6a5760405162461bcd60e51b8152602060048201526002602482015261313160f01b6044820152606401610a8c565b61019b546001600160a01b0316336001600160a01b031614610eb35760405162461bcd60e51b8152602060048201526002602482015261189960f11b6044820152606401610a8c565b60005b81811015610b2d576000610eca6101955490565b9050610edb61019580546001019055565b610ee58482613c4a565b5080610ef081615193565b915050610eb6565b610b2d83838360405180602001604052806000815250611faa565b3360009081526101616020526040812054610f3390839061ffff1661522d565b61ffff161015610f6a5760405162461bcd60e51b8152602060048201526002602482015261313360f01b6044820152606401610a8c565b60008161ffff1611610fa35760405162461bcd60e51b8152602060048201526002602482015261035360f41b6044820152606401610a8c565b60008161ffff1661019c54610fb89190615250565b1015610feb5760405162461bcd60e51b81526020600482015260026024820152610c4d60f21b6044820152606401610a8c565b6000805b8261ffff168160ff161015610b2d576101955433600090815261016160205260408120805492945061ffff909216919061102883615267565b91906101000a81548161ffff021916908361ffff1602179055505061019c600081548092919061105790615285565b919050555061106b61019580546001019055565b6110753383613c4a565b8061107f8161529c565b915050610fef565b61108f612f9e565b61019a80546001600160a01b0319166001600160a01b0392909216919091179055565b60006110bd82612f0b565b600082815260fc60209081526040808320815161012081018352815463ffffffff8082168352600160201b8204811695830195909552600160401b8104851693820193909352600160601b830484166060820152600160801b830490931660808401529060a0830190600160a01b900460ff16600981111561114157611141614be5565b600981111561115257611152614be5565b81528154600160a81b900466ffffffffffffff166020808301919091526001830154604083015260029092015460ff16151560609091015281015190915063ffffffff166111c75760405162461bcd60e51b8152602060048201526002602482015261323760f01b6044820152606401610a8c565b60e0810151608082015163ffffffff1660098360a0015160098111156111ef576111ef614be5565b036111fd5760009350611299565b826020015163ffffffff1660030361121757819350611299565b826020015163ffffffff166002036112475780611236836127106152bb565b61124091906152f0565b9350611299565b826020015163ffffffff16600114801561126357506127108110155b156112755780611236836123286152bb565b826020015163ffffffff166001148015611290575061271081105b15611299578193505b505050919050565b6112a9612f9e565b610b2d6101998383614533565b60006112c160995490565b82106113245760405162461bcd60e51b815260206004820152602c60248201527f455243373231456e756d657261626c653a20676c6f62616c20696e646578206f60448201526b7574206f6620626f756e647360a01b6064820152608401610a8c565b609982815481106113375761133761514a565b90600052602060002001549050919050565b611351613c64565b61135a82612f0b565b61136381612f0b565b3361136d83613cbd565b6001600160a01b031614801561139357503361138882613cbd565b6001600160a01b0316145b6113af5760405162461bcd60e51b8152600401610a8c90615304565b6601c6bf526340003410156113d65760405162461bcd60e51b8152600401610a8c90615320565b80820361140a5760405162461bcd60e51b8152602060048201526002602482015261323160f01b6044820152606401610a8c565b600082815260fc60209081526040808320815161012081018352815463ffffffff8082168352600160201b8204811695830195909552600160401b8104851693820193909352600160601b830484166060820152600160801b830490931660808401529060a0830190600160a01b900460ff16600981111561148e5761148e614be5565b600981111561149f5761149f614be5565b81528154600160a81b900466ffffffffffffff16602080830191909152600183015460408084019190915260029093015460ff9081161515606093840152600087815260fc8352848120855161012081018752815463ffffffff8082168352600160201b8204811696830196909652600160401b8104861697820197909752600160601b8704851695810195909552600160801b860490931660808501529495509192909160a0840191600160a01b900416600981111561156257611562614be5565b600981111561157357611573614be5565b81528154600160a81b900466ffffffffffffff1660208201526001820154604082015260029091015460ff161515606090910152905060098160a0015160098111156115c1576115c1614be5565b036115f35760405162461bcd60e51b8152602060048201526002602482015261191960f11b6044820152606401610a8c565b6000826020015163ffffffff1611801561161757506000816020015163ffffffff16115b6116485760405162461bcd60e51b8152602060048201526002602482015261323360f01b6044820152606401610a8c565b6003826020015163ffffffff16106116875760405162461bcd60e51b81526020600482015260026024820152610c8d60f21b6044820152606401610a8c565b806020015163ffffffff16826020015163ffffffff16146116cf5760405162461bcd60e51b8152602060048201526002602482015261323560f01b6044820152606401610a8c565b612710826080015163ffffffff16101580156116f75750612710816080015163ffffffff1610155b6117295760405162461bcd60e51b815260206004820152600360248201526203130360ec1b6044820152606401610a8c565b816060015163ffffffff168260c0015166ffffffffffffff164261174d9190615250565b101561176b5760405162461bcd60e51b8152600401610a8c9061533c565b806060015163ffffffff168160c0015166ffffffffffffff164261178f9190615250565b10156117ad5760405162461bcd60e51b8152600401610a8c9061533c565b61019f546101a15460405163026ecb0760e31b81526001600160a01b039092169163137658389134916117ec916001600160401b031690600401615358565b6000604051808303818588803b15801561180557600080fd5b505af1158015611819573d6000803e3d6000fd5b505061019f546101a0546101a1546040516305d3b1d360e41b8152600096506001600160a01b039093169450635d3b1d309350611887926001600160401b0382169161ffff600160401b8204169163ffffffff600160501b8304811692600160701b9004169060040161536c565b6020604051808303816000875af11580156118a6573d6000803e3d6000fd5b505050506040513d601f19601f820116820180604052508101906118ca91906153a5565b9050828583866040516020016118e3949392919061545e565b60408051601f19818403018152918152600083815261019d60209081529190208251611914939192909101906145b3565b50600081815261019e60205260409020805460ff191660021790557e520dacd2eadae30764d412efd4e3f4f51041e1649c4ca8d453c8eeb6b5729b6119563390565b604080516001600160a01b0390921682526020820188905281018690526060810183905260800160405180910390a1505050610d41600160c955565b336000908152610162602052604090205460ff16806119c05750336119b5611d7b565b6001600160a01b0316145b6119dc5760405162461bcd60e51b8152600401610a8c90615492565b60005b81518160ff161015611aaa5760006001600160a01b0316828260ff1681518110611a0b57611a0b61514a565b60200260200101516001600160a01b031603611a395760405162461bcd60e51b8152600401610a8c906151ac565b60006101616000848460ff1681518110611a5557611a5561514a565b60200260200101516001600160a01b03166001600160a01b0316815260200190815260200160002060006101000a81548161ffff021916908361ffff1602179055508080611aa29061529c565b9150506119df565b5080604051611ab991906154ae565b604051908190038120907f28c4dd0cad2a600b2bfcaa7e57f5f3266e4889e93a65ea09283c3f6eea3e6b7c90600090a250565b611af4612f9e565b60005b81811015610b2d57828282818110611b1157611b1161514a565b9050602002810190611b2391906154ed565b60fb6000858585818110611b3957611b3961514a565b9050602002810190611b4b91906154ed565b611b5c906080810190606001615160565b63ffffffff1681526020019081526020016000208181611b7c91906156c2565b50819050611b8981615193565b915050611af7565b611b99612f9e565b60005b83811015611c1757611c04858583818110611bb957611bb961514a565b9050602002016020810190611bce9190615810565b62ffffff16848484818110611be557611be561514a565b9050602002016020810190611bfa9190615810565b62ffffff16613cd8565b5080611c0f81615193565b915050611b9c565b5050505050565b600080611c2a83613cbd565b90506001600160a01b0381166109595760405162461bcd60e51b8152600401610a8c90615835565b60006001600160a01b038216611cbc5760405162461bcd60e51b815260206004820152602960248201527f4552433732313a2061646472657373207a65726f206973206e6f7420612076616044820152683634b21037bbb732b960b91b6064820152608401610a8c565b506001600160a01b031660009081526068602052604090205490565b611ce0612f9e565b611cea6000613d54565b565b6101998054611cfa90615110565b80601f0160208091040260200160405190810160405280929190818152602001828054611d2690615110565b8015611d735780601f10611d4857610100808354040283529160200191611d73565b820191906000526020600020905b815481529060010190602001808311611d5657829003601f168201915b505050505081565b61012f546001600160a01b031690565b60606066805461096e90615110565b60fb602052600090815260409020805460018201805463ffffffff80841694600160201b8504821694600160401b8104831694600160601b8204841694600160801b8304851694600160a01b84041693600160c01b90930460ff16929190611e0190615110565b80601f0160208091040260200160405190810160405280929190818152602001828054611e2d90615110565b8015611e7a5780601f10611e4f57610100808354040283529160200191611e7a565b820191906000526020600020905b815481529060010190602001808311611e5d57829003601f168201915b5050505050905088565b610d41338383613da7565b600054610100900460ff1615808015611eaf5750600054600160ff909116105b80611ed05750611ebe30613e71565b158015611ed0575060005460ff166001145b611f335760405162461bcd60e51b815260206004820152602e60248201527f496e697469616c697a61626c653a20636f6e747261637420697320616c72656160448201526d191e481a5b9a5d1a585b1a5e995960921b6064820152608401610a8c565b6000805460ff191660011790558015611f56576000805461ff0019166101001790555b8015611f9c576000805461ff0019169055604051600181527f7f26b83ff96e1f2b6a682f133852f6798a09c465da95921460cefb38474024989060200160405180910390a15b505050505050505050505050565b611fb43383613a8d565b611fd05760405162461bcd60e51b8152600401610a8c906151c8565b611fdc84848484613e80565b50505050565b611fea612f9e565b60005b81811015610b2d5760008383838181106120095761200961514a565b61201f9260206080909202019081019150615160565b63ffffffff1690508383838181106120395761203961514a565b90506080020160200160208101906120519190615160565b600082815260fc60205260409020805463ffffffff92909216600160601b0263ffffffff60601b199092169190911790558383838181106120945761209461514a565b90506080020160400160208101906120ac9190615160565b600082815260fc60205260409020805463ffffffff92909216600160801b0263ffffffff60801b199092169190911790558383838181106120ef576120ef61514a565b9050608002016060013560fc60008381526020019081526020016000206001018190555050808061211f90615193565b915050611fed565b606061213282612f0b565b600082815260fc60209081526040808320815161012081018352815463ffffffff8082168352600160201b8204811695830195909552600160401b8104851693820193909352600160601b830484166060820152600160801b830490931660808401529060a0830190600160a01b900460ff1660098111156121b6576121b6614be5565b60098111156121c7576121c7614be5565b81528154600160a81b900466ffffffffffffff16602080830191909152600183015460408084019190915260029093015460ff90811615156060938401528484015163ffffffff908116600090815260fb845285812086516101008101885281548085168252600160201b8104851696820196909652600160401b8604841697810197909752600160601b8504831695870195909552600160801b840482166080870152600160a01b840490911660a086015294955060c0840191600160c01b900416600981111561229b5761229b614be5565b60098111156122ac576122ac614be5565b81526020016001820180546122c090615110565b80601f01602080910402602001604051908101604052809291908181526020018280546122ec90615110565b80156123395780601f1061230e57610100808354040283529160200191612339565b820191906000526020600020905b81548152906001019060200180831161231c57829003601f168201915b50505091909252505060fd5460405163097304eb60e01b81529293506001600160a01b03169163097304eb915061237c90879086908690610199906004016158de565b600060405180830381865afa158015612399573d6000803e3d6000fd5b505050506040513d6000823e601f3d908101601f191682016040526123c191908101906159ab565b949350505050565b6123d1612f9e565b6001600160a01b0381166123f75760405162461bcd60e51b8152600401610a8c906151ac565b6001600160a01b0316600090815261016260205260409020805460ff19166001179055565b612424613c64565b61242d81612f0b565b3361243782613cbd565b6001600160a01b03161461245d5760405162461bcd60e51b8152600401610a8c90615304565b600081815260fc60209081526040808320815161012081018352815463ffffffff8082168352600160201b8204811695830195909552600160401b8104851693820193909352600160601b830484166060820152600160801b830490931660808401529060a0830190600160a01b900460ff1660098111156124e1576124e1614be5565b60098111156124f2576124f2614be5565b81528154600160a81b900466ffffffffffffff1660208201526001820154604082015260029091015460ff161515606090910152905060098160a00151600981111561254057612540614be5565b036125725760405162461bcd60e51b8152602060048201526002602482015261189b60f11b6044820152606401610a8c565b806020015163ffffffff1660031480156125a6575060c08101516125999062015180615a21565b66ffffffffffffff164210155b806125bb57506003816020015163ffffffff16105b6125ec5760405162461bcd60e51b8152602060048201526002602482015261037360f41b6044820152606401610a8c565b60006125f7836110b2565b61019a5460405163140e25ad60e31b8152600481018390529192506001600160a01b03169063a0712d6890602401600060405180830381600087803b15801561263f57600080fd5b505af1158015612653573d6000803e3d6000fd5b505061019a5460405163a9059cbb60e01b81526001600160a01b03909116925063a9059cbb915061268a9033908590600401615a4c565b6020604051808303816000875af11580156126a9573d6000803e3d6000fd5b505050506040513d601f19601f820116820180604052508101906126cd9190615a70565b5060408083015163ffffffff908116600081815260fb602052929092208054600160201b900490911690600461270283615a8d565b82546101009290920a63ffffffff818102199093169183160217909155600083815260fb602052604090208054600160401b90049091169150600861274683615aa3565b91906101000a81548163ffffffff021916908363ffffffff1602179055505061276e84613eb3565b505050600081815260fc6020526040812080546001600160e01b03191681556001810191909155600201805460ff191690556127aa600160c955565b50565b6127b5613c64565b6127be83612f0b565b336127c884613cbd565b6001600160a01b0316146127ee5760405162461bcd60e51b8152600401610a8c90615304565b68a2a15d09519be000008210158015612811575069043c33c19375648000008211155b6128425760405162461bcd60e51b8152602060048201526002602482015261313760f01b6044820152606401610a8c565b600083815260fc6020526040902054600160201b900463ffffffff16156128905760405162461bcd60e51b8152602060048201526002602482015261062760f31b6044820152606401610a8c565b600061019754116128b35760405162461bcd60e51b8152600401610a8c90615ac6565b6601c6bf526340003410156128da5760405162461bcd60e51b8152600401610a8c90615320565b61019a546001600160a01b03166379cc679033846040518363ffffffff1660e01b815260040161290b929190615a4c565b600060405180830381600087803b15801561292557600080fd5b505af1158015612939573d6000803e3d6000fd5b505061019f546101a15460405163026ecb0760e31b81526001600160a01b03909216935063137658389250349161297c916001600160401b031690600401615358565b6000604051808303818588803b15801561299557600080fd5b505af11580156129a9573d6000803e3d6000fd5b505061019f546101a0546101a1546040516305d3b1d360e41b8152600096506001600160a01b039093169450635d3b1d309350612a17926001600160401b0382169161ffff600160401b8204169163ffffffff600160501b8304811692600160701b9004169060040161536c565b6020604051808303816000875af1158015612a36573d6000803e3d6000fd5b505050506040513d601f19601f82011682018060405250810190612a5a91906153a5565b905033604080516001600160a01b03909216602083015281018590526060810184905260800160408051601f19818403018152918152600083815261019d60209081529190208251612ab1939192909101906145b3565b50600081815261019e60205260409020805460ff191660011790557fddb8b2819c7245fd2525a105dadb1390aefbc4e844a6fc32447d0fbeec5376cc612af43390565b604080516001600160a01b0392831681526020810188905290810184905260608101869052908416608082015260a00160405180910390a150610b2d600160c955565b336000908152610162602052604090205460ff1680612b65575033612b5a611d7b565b6001600160a01b0316145b612b815760405162461bcd60e51b8152600401610a8c90615492565b60005b82518160ff161015612cdb5760006001600160a01b0316838260ff1681518110612bb057612bb061514a565b60200260200101516001600160a01b031603612bde5760405162461bcd60e51b8152600401610a8c906151ac565b6000828260ff1681518110612bf557612bf561514a565b602002602001015161ffff1611612c335760405162461bcd60e51b8152602060048201526002602482015261199960f11b6044820152606401610a8c565b818160ff1681518110612c4857612c4861514a565b60200260200101516101616000858460ff1681518110612c6a57612c6a61514a565b60200260200101516001600160a01b03166001600160a01b0316815260200190815260200160002060008282829054906101000a900461ffff16612cae9190615ae2565b92506101000a81548161ffff021916908361ffff1602179055508080612cd39061529c565b915050612b84565b5081604051612cea91906154ae565b60405180910390207f84e8ae9033e3c74e962348eb34257a91b66840e0ce3b912a9fa43df56a67e80682604051612d219190615aff565b60405180910390a25050565b6001600160a01b039182166000908152606a6020908152604080832093909416825291909152205460ff1690565b600080612d688688615215565b90506000848611612d8257612d7d8686615250565b612d8c565b612d8c8587615250565b905060008415612da557612da261012c82615215565b90505b6101f4821015612dd357612dbb826101f4615250565b612dc69060026152bb565b612dd09082615215565b90505b612ddd86896152f0565b612de7888b6152f0565b612df19190615215565b612dfb90826152bb565b612e059084615215565b9998505050505050505050565b612e1a612f9e565b6001600160a01b038116612e7f5760405162461bcd60e51b815260206004820152602660248201527f4f776e61626c653a206e6577206f776e657220697320746865207a65726f206160448201526564647265737360d01b6064820152608401610a8c565b6127aa81613d54565b612e90612f9e565b61019b80546001600160a01b0319166001600160a01b0392909216919091179055565b611c17612f9e565b60006001600160e01b031982166380ac58cd60e01b1480612eec57506001600160e01b03198216635b5e139f60e01b145b8061095957506301ffc9a760e01b6001600160e01b0319831614610959565b612f1481613f44565b6127aa5760405162461bcd60e51b8152600401610a8c90615835565b600081815260696020526040902080546001600160a01b0319166001600160a01b0384169081179091558190612f6582611c1e565b6001600160a01b03167f8c5be1e5ebec7d5bd14f71427d1e84f3dd0314c0f7b2291e5b200ac8c7c3b92560405160405180910390a45050565b33612fa7611d7b565b6001600160a01b031614611cea5760405162461bcd60e51b815260206004820181905260248201527f4f776e61626c653a2063616c6c6572206973206e6f7420746865206f776e65726044820152606401610a8c565b613005613c64565b600082815261019e6020526040812054825160ff90911691908390829061302e5761302e61514a565b602002602001015190508160ff166001036135a457600061019754116130665760405162461bcd60e51b8152600401610a8c90615ac6565b600084815261019d6020526040812080548291829161308490615110565b80601f01602080910402602001604051908101604052809291908181526020018280546130b090615110565b80156130fd5780601f106130d2576101008083540402835291602001916130fd565b820191906000526020600020905b8154815290600101906020018083116130e057829003601f168201915b50505050508060200190518101906131159190615b47565b925092509250600061019754610197548661313091906152f0565b61313a9190615b7e565b9050600061315c6101976000815461315190615285565b918290555083613cd8565b90506000805b63ffffffff808316600090815260fb6020526040902054166131848183615b92565b91508261319081615aa3565b93505050828163ffffffff16111561316257600060fb816131b2600186615bb1565b63ffffffff9081168252602080830193909352604091820160002082516101008101845281548084168252600160201b8104841695820195909552600160401b8504831693810193909352600160601b840482166060840152600160801b840482166080840152600160a01b840490911660a0830152909160c0830190600160c01b900460ff16600981111561324a5761324a614be5565b600981111561325b5761325b614be5565b815260200160018201805461326f90615110565b80601f016020809104026020016040519081016040528092919081815260200182805461329b90615110565b80156132e85780601f106132bd576101008083540402835291602001916132e8565b820191906000526020600020905b8154815290600101906020018083116132cb57829003601f168201915b505050505081525050905060008160a0015163ffffffff16905060405180610120016040528061332e60038d61331e9190615b7e565b613329906001615215565b613f61565b63ffffffff168152602001600163ffffffff168152602001836060015163ffffffff168152602001836080015163ffffffff16815260200161336f83613f61565b63ffffffff1681526020018360c00151600981111561339057613390614be5565b815260200161339e42613fca565b66ffffffffffffff1681526020016127106133b98a856152bb565b6133c391906152f0565b8152600060209182018190528a815260fc82526040908190208351815493850151928501516060860151608087015163ffffffff908116600160801b0263ffffffff60801b19928216600160601b0263ffffffff60601b19948316600160401b0294909416600160401b600160801b0319978316600160201b026001600160401b03199099169290951691909117969096179490941691909117179182168317815560a084015190929091839160ff60a01b191664ffffffffff60801b1990911617600160a01b83600981111561349c5761349c614be5565b021790555060c08201518154600160a81b600160e01b031916600160a81b66ffffffffffffff9092169190910217815560e0820151600180830191909155610100909201516002909101805460ff191691151591909117905560fb906000906135059087615bb1565b63ffffffff908116825260208201929092526040016000208054600160201b900490911690600461353583615aa3565b91906101000a81548163ffffffff021916908363ffffffff160217905550507f9adce6eaa41c530993c42f2d744b21fd54165195253623a8a4667ba3012f8e0d888660405161358e929190918252602082015260400190565b60405180910390a1505050505050505050613a52565b8160ff16600203613a5257600084815261019d602052604081208054829182918291906135d090615110565b80601f01602080910402602001604051908101604052809291908181526020018280546135fc90615110565b80156136495780601f1061361e57610100808354040283529160200191613649565b820191906000526020600020905b81548152906001019060200180831161362c57829003601f168201915b50505050508060200190518101906136619190615cab565b935093509350935060008460e00151905060008360e0015190506000866080015163ffffffff1690506000856080015163ffffffff1690506000866040015163ffffffff16896040015163ffffffff1614905060006136c38686868686612d5b565b905060006136d184876152f0565b6136db86896152f0565b6136e59190615215565b6136ef8789615215565b6136f991906152f0565b6101008c01519091506000901580156137255750896040015163ffffffff168c6040015163ffffffff16145b61373057600061374c565b61373b60028e615b7e565b60011461374957600061374c565b60015b90508060fc60008d815260200190815260200160002060020160006101000a81548160ff02191690831515021790555060fb60008b6040015163ffffffff16815260200190815260200160002060000160109054906101000a900463ffffffff1663ffffffff1660fb60008e6040015163ffffffff16815260200190815260200160002060000160109054906101000a900463ffffffff1663ffffffff1611613819576040808b015163ffffffff908116600090815260fb6020529190912054600160801b90041661383f565b6040808d015163ffffffff908116600090815260fb6020529190912054600160801b9004165b60008c815260fc60205260409020805463ffffffff92909216600160601b0263ffffffff60601b1990921691909117905561387982613f61565b60008c815260fc60205260409020805463ffffffff60801b1916600160801b63ffffffff938416021780825560018201869055600160201b90049091169060046138c283615aa3565b91906101000a81548163ffffffff021916908363ffffffff160217905550506138ea42613fca565b60008c815260fc60209081526040808320805466ffffffffffffff95909516600160a81b02600160a81b600160e01b0319909516949094179093558c83015163ffffffff908116835260fb9091529190208054600192600491613956918591600160201b900416615bb1565b92506101000a81548163ffffffff021916908363ffffffff160217905550600160fb60008c6040015163ffffffff16815260200190815260200160002060000160088282829054906101000a900463ffffffff166139b49190615b92565b92506101000a81548163ffffffff021916908363ffffffff1602179055506139db89613eb3565b600089815260fc602052604080822080546001600160e01b031916815560018101929092556002909101805460ff19169055517f74c06234d8c425fae1b7d366be9ec08cc8799db091dbca84e6c2d05b1c00b9c790613a3d908d815260200190565b60405180910390a15050505050505050505050505b600084815261019d60205260408120613a6a91614627565b5050600082815261019e60205260409020805460ff19169055610d41600160c955565b600080613a9983611c1e565b9050806001600160a01b0316846001600160a01b03161480613ac05750613ac08185612d2d565b806123c15750836001600160a01b0316613ad9846109f1565b6001600160a01b031614949350505050565b826001600160a01b0316613afe82611c1e565b6001600160a01b031614613b245760405162461bcd60e51b8152600401610a8c90615cf5565b6001600160a01b038216613b865760405162461bcd60e51b8152602060048201526024808201527f4552433732313a207472616e7366657220746f20746865207a65726f206164646044820152637265737360e01b6064820152608401610a8c565b613b938383836001614032565b826001600160a01b0316613ba682611c1e565b6001600160a01b031614613bcc5760405162461bcd60e51b8152600401610a8c90615cf5565b600081815260696020908152604080832080546001600160a01b03199081169091556001600160a01b038781168086526068855283862080546000190190559087168086528386208054600101905586865260679094528285208054909216841790915590518493600080516020615e3383398151915291a4505050565b610d4182826040518060200160405280600081525061415f565b600260c95403613cb65760405162461bcd60e51b815260206004820152601f60248201527f5265656e7472616e637947756172643a207265656e7472616e742063616c6c006044820152606401610a8c565b600260c955565b6000908152606760205260409020546001600160a01b031690565b60008281526101a26020526040812054839015613d01575060008381526101a260205260409020545b60008481526101a2602052604080822085905584825290205415613d375760008381526101a26020526040808220548683529120555b60009283526101a260205260408084209190915592825250205490565b61012f80546001600160a01b038381166001600160a01b0319831681179093556040519116919082907f8be0079c531659141344cd1fd0a4f28419497f9722a3daafe3b4186f6b6457e090600090a35050565b816001600160a01b0316836001600160a01b031603613e045760405162461bcd60e51b815260206004820152601960248201527822a9219b99189d1030b8383937bb32903a379031b0b63632b960391b6044820152606401610a8c565b6001600160a01b038381166000818152606a6020908152604080832094871680845294825291829020805460ff191686151590811790915591519182527f17307eab39ab6107e8899845ad3d59bd9653f200f220920489ca2b5937696c31910160405180910390a3505050565b6001600160a01b03163b151590565b613e8b848484613aeb565b613e9784848484614192565b611fdc5760405162461bcd60e51b8152600401610a8c90615d3a565b6000613ebe82611c1e565b9050613ece816000846001614032565b613ed782611c1e565b600083815260696020908152604080832080546001600160a01b03199081169091556001600160a01b038516808552606884528285208054600019019055878552606790935281842080549091169055519293508492600080516020615e33833981519152908390a45050565b600080613f5083613cbd565b6001600160a01b0316141592915050565b600063ffffffff821115613fc65760405162461bcd60e51b815260206004820152602660248201527f53616665436173743a2076616c756520646f65736e27742066697420696e203360448201526532206269747360d01b6064820152608401610a8c565b5090565b600066ffffffffffffff821115613fc65760405162461bcd60e51b815260206004820152602660248201527f53616665436173743a2076616c756520646f65736e27742066697420696e203560448201526536206269747360d01b6064820152608401610a8c565b60018111156140a15760405162461bcd60e51b815260206004820152603560248201527f455243373231456e756d657261626c653a20636f6e7365637574697665207472604482015274185b9cd9995c9cc81b9bdd081cdd5c1c1bdc9d1959605a1b6064820152608401610a8c565b816001600160a01b0385166140fd576140f881609980546000838152609a60205260408120829055600182018355919091527f72a152ddfb8e864297c917af52ea6c1c68aead0fee1a62673fcc7e0c94979d000155565b614120565b836001600160a01b0316856001600160a01b03161461412057614120858261429a565b6001600160a01b03841661413c5761413781614337565b611c17565b846001600160a01b0316846001600160a01b031614611c1757611c1784826143e6565b614169838361442a565b6141766000848484614192565b610b2d5760405162461bcd60e51b8152600401610a8c90615d3a565b60006141a6846001600160a01b0316613e71565b1561428f57604051630a85bd0160e11b81526001600160a01b0385169063150b7a02906141dd903390899088908890600401615d8c565b6020604051808303816000875af1925050508015614218575060408051601f3d908101601f1916820190925261421591810190615dc9565b60015b614275573d808015614246576040519150601f19603f3d011682016040523d82523d6000602084013e61424b565b606091505b50805160000361426d5760405162461bcd60e51b8152600401610a8c90615d3a565b805181602001fd5b6001600160e01b031916630a85bd0160e11b1490506123c1565b506001949350505050565b600060016142a784611c52565b6142b19190615250565b600083815260986020526040902054909150808214614304576001600160a01b03841660009081526097602090815260408083208584528252808320548484528184208190558352609890915290208190555b5060009182526098602090815260408084208490556001600160a01b039094168352609781528383209183525290812055565b60995460009061434990600190615250565b6000838152609a6020526040812054609980549394509092849081106143715761437161514a565b9060005260206000200154905080609983815481106143925761439261514a565b6000918252602080832090910192909255828152609a909152604080822084905585825281205560998054806143ca576143ca615de6565b6001900381819060005260206000200160009055905550505050565b60006143f183611c52565b6001600160a01b039093166000908152609760209081526040808320868452825280832085905593825260989052919091209190915550565b6001600160a01b0382166144805760405162461bcd60e51b815260206004820181905260248201527f4552433732313a206d696e7420746f20746865207a65726f20616464726573736044820152606401610a8c565b61448981613f44565b156144a65760405162461bcd60e51b8152600401610a8c90615dfc565b6144b4600083836001614032565b6144bd81613f44565b156144da5760405162461bcd60e51b8152600401610a8c90615dfc565b6001600160a01b038216600081815260686020908152604080832080546001019055848352606790915280822080546001600160a01b031916841790555183929190600080516020615e33833981519152908290a45050565b82805461453f90615110565b90600052602060002090601f01602090048101928261456157600085556145a7565b82601f1061457a5782800160ff198235161785556145a7565b828001600101855582156145a7579182015b828111156145a757823582559160200191906001019061458c565b50613fc692915061465d565b8280546145bf90615110565b90600052602060002090601f0160209004810192826145e157600085556145a7565b82601f106145fa57805160ff19168380011785556145a7565b828001600101855582156145a7579182015b828111156145a757825182559160200191906001019061460c565b50805461463390615110565b6000825580601f10614643575050565b601f0160209004906000526020600020908101906127aa91905b5b80821115613fc6576000815560010161465e565b6001600160e01b0319811681146127aa57600080fd5b60006020828403121561469a57600080fd5b81356146a581614672565b9392505050565b60005b838110156146c75781810151838201526020016146af565b83811115611fdc5750506000910152565b600081518084526146f08160208601602086016146ac565b601f01601f19169290920160200192915050565b6020815260006146a560208301846146d8565b60006020828403121561472957600080fd5b5035919050565b6001600160a01b03811681146127aa57600080fd5b803561475081614730565b919050565b6000806040838503121561476857600080fd5b823561477381614730565b946020939093013593505050565b60008083601f84011261479357600080fd5b5081356001600160401b038111156147aa57600080fd5b6020830191508360208260071b85010111156147c557600080fd5b9250929050565b600080602083850312156147df57600080fd5b82356001600160401b038111156147f557600080fd5b61480185828601614781565b90969095509350505050565b60006020828403121561481f57600080fd5b81356146a581614730565b634e487b7160e01b600052604160045260246000fd5b60405161012081016001600160401b03811182821017156148635761486361482a565b60405290565b604051601f8201601f191681016001600160401b03811182821017156148915761489161482a565b604052919050565b60006001600160401b038211156148b2576148b261482a565b5060051b60200190565b600080604083850312156148cf57600080fd5b823591506020808401356001600160401b038111156148ed57600080fd5b8401601f810186136148fe57600080fd5b803561491161490c82614899565b614869565b81815260059190911b8201830190838101908883111561493057600080fd5b928401925b8284101561494e57833582529284019290840190614935565b80955050505050509250929050565b60008060006060848603121561497257600080fd5b833561497d81614730565b9250602084013561498d81614730565b929592945050506040919091013590565b803561ffff8116811461475057600080fd5b6000602082840312156149c257600080fd5b6146a58261499e565b600080602083850312156149de57600080fd5b82356001600160401b03808211156149f557600080fd5b818501915085601f830112614a0957600080fd5b813581811115614a1857600080fd5b866020828501011115614a2a57600080fd5b60209290920196919550909350505050565b60008060408385031215614a4f57600080fd5b50508035926020909101359150565b600082601f830112614a6f57600080fd5b81356020614a7f61490c83614899565b82815260059290921b84018101918181019086841115614a9e57600080fd5b8286015b84811015614ac2578035614ab581614730565b8352918301918301614aa2565b509695505050505050565b600060208284031215614adf57600080fd5b81356001600160401b03811115614af557600080fd5b6123c184828501614a5e565b60008083601f840112614b1357600080fd5b5081356001600160401b03811115614b2a57600080fd5b6020830191508360208260051b85010111156147c557600080fd5b60008060208385031215614b5857600080fd5b82356001600160401b03811115614b6e57600080fd5b61480185828601614b01565b60008060008060408587031215614b9057600080fd5b84356001600160401b0380821115614ba757600080fd5b614bb388838901614b01565b90965094506020870135915080821115614bcc57600080fd5b50614bd987828801614b01565b95989497509550505050565b634e487b7160e01b600052602160045260246000fd5b600a8110614c1957634e487b7160e01b600052602160045260246000fd5b9052565b63ffffffff89811682528881166020830152878116604083015286811660608301528581166080830152841660a08201526000610100614c6060c0840186614bfb565b8060e0840152614c72818401856146d8565b9b9a5050505050505050505050565b80151581146127aa57600080fd5b60008060408385031215614ca257600080fd5b8235614cad81614730565b91506020830135614cbd81614c81565b809150509250929050565b60006001600160401b03821115614ce157614ce161482a565b50601f01601f191660200190565b6000614cfd61490c84614cc8565b9050828152838383011115614d1157600080fd5b828260208301376000602084830101529392505050565b600082601f830112614d3957600080fd5b6146a583833560208501614cef565b80356001600160401b038116811461475057600080fd5b60008060008060008060008060008060006101608c8e031215614d8157600080fd5b6001600160401b038c35811015614d9757600080fd5b614da48e8e358f01614d28565b9b508060208e01351115614db757600080fd5b614dc78e60208f01358f01614d28565b9a50614dd560408e01614745565b995060608d0135985060808d0135975060a08d01359650614df860c08e01614745565b9550614e0660e08e01614d48565b9450806101008e01351115614e1a57600080fd5b50614e2c8d6101008e01358e01614d28565b9250614e3b6101208d01614745565b9150614e4a6101408d01614745565b90509295989b509295989b9093969950565b60008060008060808587031215614e7257600080fd5b8435614e7d81614730565b93506020850135614e8d81614730565b92506040850135915060608501356001600160401b03811115614eaf57600080fd5b8501601f81018713614ec057600080fd5b614ecf87823560208401614cef565b91505092959194509250565b63ffffffff8a81168252898116602083015288811660408301528781166060830152861660808201526101208101614f1660a0830187614bfb565b66ffffffffffffff851660c08301528360e08301528215156101008301529a9950505050505050505050565b600080600060608486031215614f5757600080fd5b83359250602084013591506040840135614f7081614730565b809150509250925092565b60008060408385031215614f8e57600080fd5b82356001600160401b0380821115614fa557600080fd5b614fb186838701614a5e565b9350602091508185013581811115614fc857600080fd5b85019050601f81018613614fdb57600080fd5b8035614fe961490c82614899565b81815260059190911b8201830190838101908883111561500857600080fd5b928401925b8284101561494e5761501e8461499e565b8252928401929084019061500d565b6000806040838503121561504057600080fd5b823561504b81614730565b91506020830135614cbd81614730565b600080600080600060a0868803121561507357600080fd5b85359450602086013593506040860135925060608601359150608086013561509a81614c81565b809150509295509295909350565b63ffffffff811681146127aa57600080fd5b600080600080600060a086880312156150d257600080fd5b6150db86614d48565b9450602086013593506150f06040870161499e565b92506060860135615100816150a8565b9150608086013561509a816150a8565b600181811c9082168061512457607f821691505b60208210810361514457634e487b7160e01b600052602260045260246000fd5b50919050565b634e487b7160e01b600052603260045260246000fd5b60006020828403121561517257600080fd5b81356146a5816150a8565b634e487b7160e01b600052601160045260246000fd5b6000600182016151a5576151a561517d565b5060010190565b602080825260029082015261033360f41b604082015260600190565b6020808252602d908201527f4552433732313a2063616c6c6572206973206e6f7420746f6b656e206f776e6560408201526c1c881bdc88185c1c1c9bdd9959609a1b606082015260800190565b600082198211156152285761522861517d565b500190565b600061ffff838116908316818110156152485761524861517d565b039392505050565b6000828210156152625761526261517d565b500390565b600061ffff82168061527b5761527b61517d565b6000190192915050565b6000816152945761529461517d565b506000190190565b600060ff821660ff81036152b2576152b261517d565b60010192915050565b60008160001904831182151516156152d5576152d561517d565b500290565b634e487b7160e01b600052601260045260246000fd5b6000826152ff576152ff6152da565b500490565b602080825260029082015261313560f01b604082015260600190565b602080825260029082015261032360f41b604082015260600190565b602080825260029082015261191b60f11b604082015260600190565b6001600160401b0391909116815260200190565b9485526001600160401b0393909316602085015261ffff91909116604084015263ffffffff908116606084015216608082015260a00190565b6000602082840312156153b757600080fd5b5051919050565b63ffffffff8082511683528060208301511660208401528060408301511660408401525060608101516153f9606084018263ffffffff169052565b506080810151615411608084018263ffffffff169052565b5060a081015161542460a0840182614bfb565b5060c081015161543f60c084018266ffffffffffffff169052565b5060e081015160e083015261010080820151611fdc8285018215159052565b610280810161546d82876153be565b846101208301526154826101408301856153be565b8261026083015295945050505050565b602080825260029082015261333160f01b604082015260600190565b815160009082906020808601845b838110156154e15781516001600160a01b0316855293820193908201906001016154bc565b50929695505050505050565b6000823560fe1983360301811261550357600080fd5b9190910192915050565b60008135610959816150a8565b600a81106127aa57600080fd5b600081356109598161551a565b600a821061555257634e487b7160e01b600052602160045260246000fd5b805460ff60c01b191660c09290921b60ff60c01b16919091179055565b6000808335601e1984360301811261558657600080fd5b8301803591506001600160401b038211156155a057600080fd5b6020019150368190038213156147c557600080fd5b601f821115610b2d57600081815260208120601f850160051c810160208610156155dc5750805b601f850160051c820191505b818110156155fb578281556001016155e8565b505050505050565b6001600160401b0383111561561a5761561a61482a565b61562e836156288354615110565b836155b5565b6000601f841160018114615662576000851561564a5750838201355b600019600387901b1c1916600186901b178355611c17565b600083815260209020601f19861690835b828110156156935786850135825560209485019460019092019101615673565b50868210156156b05760001960f88860031b161c19848701351681555b505060018560011b0183555050505050565b81356156cd816150a8565b63ffffffff8116905081548163ffffffff19821617835560208401356156f2816150a8565b6001600160401b03199190911690911760209190911b63ffffffff60201b161781556157476157236040840161550d565b82805463ffffffff60401b191660409290921b63ffffffff60401b16919091179055565b61577a6157566060840161550d565b82805463ffffffff60601b191660609290921b63ffffffff60601b16919091179055565b6157ad6157896080840161550d565b82805463ffffffff60801b191660809290921b63ffffffff60801b16919091179055565b6157e06157bc60a0840161550d565b82805463ffffffff60a01b191660a09290921b63ffffffff60a01b16919091179055565b6157f56157ef60c08401615527565b82615534565b61580260e083018361556f565b611fdc818360018601615603565b60006020828403121561582257600080fd5b813562ffffff811681146146a557600080fd5b602080825260189082015277115490cdcc8c4e881a5b9d985b1a59081d1bdad95b88125160421b604082015260600190565b6000815461587481615110565b80855260206001838116801561589157600181146158a5576158d3565b60ff198516888401526040880195506158d3565b866000528260002060005b858110156158cb5781548a82018601529083019084016158b0565b890184019650505b505050505092915050565b60006101808683526158f360208401876153be565b8061014084015263ffffffff8086511682850152806020870151166101a08501525050604084015161592e6101c084018263ffffffff169052565b50606084015163ffffffff9081166101e08401526080850151811661020084015260a08501511661022083015260c084015161596e610240840182614bfb565b5060e084015161010061026084015261598b6102808401826146d8565b90508281036101608401526159a08185615867565b979650505050505050565b6000602082840312156159bd57600080fd5b81516001600160401b038111156159d357600080fd5b8201601f810184136159e457600080fd5b80516159f261490c82614cc8565b818152856020838501011115615a0757600080fd5b615a188260208301602086016146ac565b95945050505050565b600066ffffffffffffff808316818516808303821115615a4357615a4361517d565b01949350505050565b6001600160a01b03929092168252602082015260400190565b805161475081614c81565b600060208284031215615a8257600080fd5b81516146a581614c81565b600063ffffffff82168061527b5761527b61517d565b600063ffffffff808316818103615abc57615abc61517d565b6001019392505050565b602080825260029082015261313960f01b604082015260600190565b600061ffff808316818516808303821115615a4357615a4361517d565b6020808252825182820181905260009190848201906040850190845b81811015615b3b57835161ffff1683529284019291840191600101615b1b565b50909695505050505050565b600080600060608486031215615b5c57600080fd5b8351615b6781614730565b602085015160409095015190969495509392505050565b600082615b8d57615b8d6152da565b500690565b600063ffffffff808316818516808303821115615a4357615a4361517d565b600063ffffffff838116908316818110156152485761524861517d565b8051614750816150a8565b80516147508161551a565b805166ffffffffffffff8116811461475057600080fd5b60006101208284031215615c0e57600080fd5b615c16614840565b9050615c2182615bce565b8152615c2f60208301615bce565b6020820152615c4060408301615bce565b6040820152615c5160608301615bce565b6060820152615c6260808301615bce565b6080820152615c7360a08301615bd9565b60a0820152615c8460c08301615be4565b60c082015260e082015160e0820152610100615ca1818401615a65565b9082015292915050565b6000806000806102808587031215615cc257600080fd5b615ccc8686615bfb565b93506101208501519250615ce4866101408701615bfb565b610260959095015193969295505050565b60208082526025908201527f4552433732313a207472616e736665722066726f6d20696e636f72726563742060408201526437bbb732b960d91b606082015260800190565b60208082526032908201527f4552433732313a207472616e7366657220746f206e6f6e20455243373231526560408201527131b2b4bb32b91034b6b83632b6b2b73a32b960711b606082015260800190565b6001600160a01b0385811682528416602082015260408101839052608060608201819052600090615dbf908301846146d8565b9695505050505050565b600060208284031215615ddb57600080fd5b81516146a581614672565b634e487b7160e01b600052603160045260246000fd5b6020808252601c908201527b115490cdcc8c4e881d1bdad95b88185b1c9958591e481b5a5b9d195960221b60408201526060019056feddf252ad1be2c89b69c2b068fc378daa952ba7f163c4a11628f55a4df523b3efa2646970667358221220d472d666dde10205370fe1c8c5b03dbb13a08a7f30bfdf1ad9dd03bd984bb00964736f6c634300080d0033",
    "linkReferences": {}
  },
  "methodIdentifiers": {
    "IPFS_HASH()": "89fe2a7e",
    "MAX_SUPPLY()": "32cb6b0c",
    "addToWhitelist(address[],uint16[])": "e6462682",
    "animals(uint256)": "998dd3ca",
    "approve(address,uint256)": "095ea7b3",
    "balanceOf(address)": "70a08231",
    "baseAnimals()": "9710d5ca",
    "calculateEvolveStakedTokens(uint256,uint256,uint256,uint256,bool)": "f1952b21",
    "dZooStaking()": "e8bc2cbd",
    "dZooToken()": "3d5956ca",
    "earned(uint256)": "4d6ed8c4",
    "evolve(uint256,uint256)": "50ccda0c",
    "fillAssignOrders(uint24[],uint24[])": "5c7ce938",
    "getApproved(uint256)": "081812fc",
    "grantWhitelistRole(address)": "cd88211d",
    "hatch(uint256,uint256,address)": "e4608df3",
    "increaseZooRemainingToAssign(uint256)": "400718f0",
    "initialize(string,string,address,bytes32,uint256,uint256,address,uint64,string,address,address)": "b1750afe",
    "isApprovedForAll(address,address)": "e985e9c5",
    "kill(uint256)": "d29a0025",
    "metadata(uint256)": "e3684e39",
    "mint(address,uint256)": "40c10f19",
    "mintWhitelist(uint16)": "464d31db",
    "name()": "06fdde03",
    "owner()": "8da5cb5b",
    "ownerOf(uint256)": "6352211e",
    "rawFulfillRandomWords(uint256,uint256[])": "1fe543e3",
    "removeFromWhitelist(address[])": "548db174",
    "renounceOwnership()": "715018a6",
    "revokeWhitelistRole(address)": "0fc68ae5",
    "safeTransferFrom(address,address,uint256)": "42842e0e",
    "safeTransferFrom(address,address,uint256,bytes)": "b88d4fde",
    "setApprovalForAll(address,bool)": "a22cb465",
    "setIpfsHash(string)": "4e3b62ec",
    "setNewAnimals((uint32,uint32,uint32,uint32,uint32,uint32,uint8,string)[])": "5718ec2a",
    "setVRFParams(uint64,bytes32,uint16,uint32,uint32)": "fe130c2d",
    "setZooStaking(address)": "f4ad5ab8",
    "setZooToken(address)": "497403b2",
    "supportsInterface(bytes4)": "01ffc9a7",
    "symbol()": "95d89b41",
    "tokenByIndex(uint256)": "4f6ccce7",
    "tokenOfOwnerByIndex(address,uint256)": "2f745c59",
    "tokenURI(uint256)": "c87b56dd",
    "totalSupply()": "18160ddd",
    "transferFrom(address,address,uint256)": "23b872dd",
    "transferOwnership(address)": "f2fde38b",
    "updateAnimals((uint32,uint32,uint32,uint32)[])": "0df6dfd1",
    "updateMetadata((uint32,uint32,uint32,uint256)[])": "bcdcac73",
    "whitelist(address)": "9b19251a",
    "whitelistMintRemaining()": "af944d1a",
    "zooRemainingToAssign()": "04def588"
  },
  "id": 82
}